:020000020000FC
:10000000B99AC09A51D0B099FDCF56D055D054D09E
:100010001FD052D02CD0F6CFBF7FC19A37D0B0E2DC
:10002000C1983DD0C19A3BD03AD039D0BA95C1F7EA
:10003000C1980895BF7FC19AB0E2C19830D0C19AEB
:100040002ED02DD02CD0BA95C1F720D0C1980895CC
:10005000E3DFE2DFE1DFEEDFEDDFDEDFDDDFEADF82
:10006000DBDFDADFE7DFD8DFE5DFD6DF0895D4DFD7
:10007000D3DFE0DFDFDFDEDFDDDFDCDFCDDFDADFB8
:10008000D9DFCADFC9DFD6DFC7DF08952F7F3F7F03
:1000900020E138EB3A95F1F72A95D9F708952F7FAB
:1000A00024E12A95F1F708952F7F23E03CE03A956B
:1000B000F1F72A95D9F708952F7F3F7F4F7F23E0EF
:1000C00030EA4AEC4A95F1F73A95D9F72A95C1F703
:0400D000E6DF0895CA
:00000001FF
